:100A5E0041542B4D515454555345524346473D3006
:100A6E002C312C223035363764663831346331619F
:100A7E0034656562626430653765656463646239E6
:100A8E0031633064222C22222C22222C302C302C4A
:100A9E0022220D0A0041542B4D515454434F4E4EB9
:100AAE003D302C223131392E39312E3130392E3123
:100ABE003830222C393530312C300D0A0041542B70
:100ACE004D5154545355423D302C2274657374224B
:100ADE002C310D0A00FFFFFFFFFFFFFFFFFFFFFF9F
:100AEE00FFFFFFFFFFFFFFBFF7EFEFFFDFDFDFEFE0
:100AFE00EFEFEFEFEFEFEFEFEFEFEFFFDFEFFFF7E0
:100B0E00F7F7F7EFDFBFFFFFFFFFFFFFFFFFFFFF6F
:100B1E00FFFFFFFFFFFFFFFFFFFFFFFFFFFFFFFFD7
:100B2E00FFFFFFFF7F9FFFFFFFDFEFFFF7FBFFFFE3
:100B3E00FDFFFF7F7E7E7E7FFFFFFF7FFFFFFFFFBC
:100B4E00FFFFFFFFFFFFFFEFD07FFF7FBFBFBFBFE6
:100B5E00BFBF7F7FFFFFFFFFFFFFFFFFFFFFFFFF17
:100B6E00FFFFFFFF1FF3FEFFFFFDFFFFBFDFEFF7EE
:100B7E00FBFDFDFDFCFCFDFB670FBFBFBF87FBFC54
:100B8E00FCFEFDFDFBFFFFFFFFFFFFFFE6FFFFFF8C
:100B9E00FFFFFF7FBDF73CC3FFFFFFFFFFFFFFFF20
:100BAE00FFFFFF9F7FF1FFFFFFFFFFFFFFE0DFBFB4
:100BBE00FF7F7F3FBFDFCFE7F3E9DAD1F3F7F7FF30
:100BCE00F8FBE7EFDFBFBFFFFFFFFFFFFFFFFFFFFA
:100BDE00FFEF77BBDDE6FBFCFFFFFFFFFFFFFF7FB5
:100BEE009F67DBFFFFFFFFFFFFFFFFFFFFFFFFFF23
:100BFE00FFFFFFFFFFFFFFFFFFFFFFFFFFFFFFFFF7
:100C0E00FFFFFFFFFFFFFFFFFFFFFFFFFFFFFF3FA6
:100C1E00EFFBFDFEFFFFFFFFFFFFFFFFFFFFFFFFED
:100C2E00FFF0EF9EBFFF7FBFBFDFEDF3EFBFFFFF14
:100C3E00FFFFFFFFFFFFFFFFFFFFFFFFFFBF7FFF76
:100C4E00FF7FFFFFFFFFFFFFFFFFFFFFFFFFFFF72E
:100C5E00F9FFFFFFFFFFFFFFFFFFFFFFFFFFFFFF9C
:100C6E00FFFFFFFFFFFFFFFFFFFFFFFFFFFFFFFF86
:100C7E00F90FFFFFFFFFFFFFFFFFFFFFFFFFFFFF6C
:100C8E00FFFEFFFFFFFFFFFFFFFFFFFFFF3FE7FF3F
:100C9E00FFFFFFFFFFFFFFFFFFFFFFFFFFFFFFFF56
:100CAE00FFFFFFFFFFFFFFFFFFFFFFFFFFFFFFFF46
:100CBE00FFFFFFE0FFBFFF7F7F7F7F7F7F7FFFE72D
:100CCE00FDFDFDEDFBFF7F7F7F7F7F7F7FBFBFC081
:100CDE00FFFFFFFFFFFFFFFFFFFFFFFFFFFFFFFF16
:100CEE00FFFFFFFFFF0003050911FF118905C30078
:100CFE00E000F000F8000000000000004428FF11A2
:100D0E00AA440000000000000000000000000000E7
:100D1E0000000000000000000000000000000000C5
:100D2E0000000000000000000000000000000000B5
:100D3E000000000000000000000000000000008322
:100D4E00013844829292740183000000000000007A
:100D5E007C44FF017D7D7D7D017D7D7D7D017D7DE1
:100D6E007D7D01FF00000000000001000100010078
:100D7E000100010001000000000000000000010160
:100D8E000000000000000000000000000000000055
:100D9E000000000000000000000000000000000045
:100DAE000000000000000000000000000000000035
:100DBE000000000000000000000000000000000124
:100DCE000100000000000001010000000000000012
:100DDE0000000101010101010101010101010101F7
:100DEE0001010101000000000000000000000000F1
:100DFE0000000000000000000000000000000000E5
:100E0E0000000000F80808080808080800F8186034
:100E1E0080000000806018F80000002020F800001C
:100E2E0000000000E0100808080810E00000002094
:100E3E0020F800000000000000000000000008087C
:100E4E000808088868180000000000000000000074
:100E5E000000000000000000000000000000000084
:100E6E000000000000000000000000000000000074
:100E7E000000000000000000000000000000000064
:100E8E00000000007F01010101010100007F000050
:100E9E00010618060100007F00000040407F404020
:100EAE00000000001F2040404040201F0000004076
:100EBE00407F404000000000006000000000000085
:100ECE006018060100000000000000000000000095
:100EDE000000000000000000000000000000000004
:100EEE0000000000000000000000000000000000F4
:100EFE0000000000000000000000000000000000E4
:100F0E000000000000000000000040202020C00073
:100F1E0000E0202020E000000040E0000000006023
:100F2E00202020E00000000000E0202020E0000053
:100F3E0000000040202020C0000040202020C000E3
:100F4E000000000000000000000000000000000093
:100F5E000000000000000000000000000000000083
:100F6E000000000000000000000000000000000073
:100F7E000000000000000000000000000000000063
:100F8E00000000000000000000000C0A0A090C001E
:100F9E00000F0808080F000000080F080000000CE2
:100FAE000809090E00000C00000F0909090F0000C6
:100FBE000C00000C0A0A090C00000C0A0A090C00AD
:100FCE000000000000000000000000000000000013
:100FDE000000000000000000000000000000000003
:100FEE0000000000000000000000000000000000F3
:100FFE0000000000000000000000000000000000E3
:10100E0000000000000000000000000000000000D2
:10101E0000000000000000000000000000000000C2
:10102E0000808080808080808000000000000000B2
:10103E0000000000000000000000000000000000A2
:10104E000000000000000000000000000000000092
:10105E000000000000000000000000000000000082
:10106E000000000000007F030C300C037F000038EE
:10107E0054545800007C04047800003C40407C002E
:10108E000000000000000000000000000000000052
:10109E000000000000000000000000000000000042
:1010AE0000FFAAAAAA280800FF0000000000000006
:1010BE000000000000000000000000000000000022
:1010CE0000000000000000000000000000007F0390
:1010DE000C300C037F0000264949493200007F0284
:0510EE000408107F0062
:10191A000324FF0A5E0327FF0AA3032AFF0ACB0157
:02192A001C009F
:101521001218851218EC1210F31217B2E4FBFD7FAA
:101531000112149D7B01E4FD7F1212149D7B02E4D4
:10154100FD7F2412149D7B03E4FD7F3612149D7BE5
:10155100047D037F0112149D754C017B3A7D047F4C
:10156100121211DA7B0780201219918F21EF640189
:10157100700CE52370047F0180027F008F23E52337
:101581006401700DC2817B067D037F1912149D8059
:10159100D7E52370D3D2817B077D037F1912149D78
:0215A10080C602
:030023000216863C
:09168600C0E0C0D075D000C00026
:10168F00309821C2987408252DF8A699E508643A78
:10169F00600BD3E52D9400748094804004052D8059
:1016AF0003752D00E52D640D7014F52DE514B4317F
:0E16BF00057523018008E514B430037523007F
:0716CD00D000D0D0D0E032C4
:03000B000212B529
:1012B500C0E0C0F0C083C082C0D075D000C000C0FF
:0D12C50001C002C003C004C005C006C00780
:1012D200051EE51E7002051D0520E5207002051F92
:1012E200758A66758CFCC3E51E9402E51D94004068
:1012F20009121842751D00751E00E520B48813E519
:101302001FB4130EE51C700A051CAB24AA25A926DE
:101312008032E520B4E015E51FB42E10E51C64010F
:10132200700A051CAB27AA28A9298018E520B4F069
:1013320016E51FB45511E51C6402700B051CAB2A9F
:07134200AA2BA92C12192DA2
:10134900D007D006D005D004D003D002D001D000F8
:0B135900D0D0D082D083D0F0D0E032A2
:1018850053873F759850D2AFD2AC53890F43892007
:0B189500758DFD758BFDC2ABD28E225D
:080003008F993099FDC299228A
:10192D00121364FF600C120003740129F9E43AFAF2
:03193D0080EE2217
:10000E00EF4E600F7D027CEFDCFEDDFCEF1F70F02B
:03001E001E80ED54
:0100210022BC
:1018EC005389F0438901758A66758CFCC28DD28C44
:0718FC00D2A9D2AFD28C2269
:06198300E4FF2090010FBB
:01198900223B
:10184200854F4E1219838F4FEF70047F0180027F04
:1018520000E54E640170047E0180027E00EE5F604E
:0418620003755001B9
:01186600225F
:05199100AF50E4F55029
:01199600222E
:100026000000000000000000002F00000000070094
:10003600070000147F147F1400242A7F2A1200620E
:1000460064081323003649552250000005030000BA
:1000560000001C224100000041221C000014083E42
:1000660008140008083E0808000000A06000000808
:10007600080808080000606000000020100804025C
:10008600003E5149453E0000427F4000004261511A
:100096004946002141454B31001814127F100027B4
:1000A60045454539003C4A49493000017109050377
:1000B60000364949493600064949291E00003636A8
:1000C600000000005636000000081422410000140B
:1000D60014141414000041221408000201510906E8
:1000E60000324959513E007C1211127C007F494969
:1000F6004936003E41414122007F4141221C007F9A
:1001060049494941007F09090901003E4149497AA7
:10011600007F0808087F0000417F41000020404121
:100126003F01007F08142241007F40404040007F8D
:10013600020C027F007F0408107F003E4141413ED1
:10014600007F09090906003E4151215E007F091919
:1001560029460046494949310001017F0101003F16
:100166004040403F001F2040201F003F4038403F96
:1001760000631408146300070870080700615149FA
:10018600454300007F41410000552A552A5500008D
:1001960041417F000004020102040040404040400B
:1001A600000001020400002054545478007F4844A3
:1001B600443800384444442000384444487F0038DA
:1001C6005454541800087E0901020018A4A4A47C03
:1001D600007F080404780000447D400000408084CD
:1001E6007D00007F102844000000417F4000007C15
:1001F60004180478007C0804047800384444443821
:1002060000FC242424180018242418FC007C08046C
:10021600040800485454542000043F444020003C45
:100226004040207C001C2040201C003C4030403CCC
:10023600004428102844001CA0A0A07C004464545C
:100246004C441414141414140000000000000000A0
:100256000000000000000000000000F800000000A0
:10026600000000333000000000100C06100C0600E1
:10027600000000000000000040C07840C078400048
:10028600043F04043F040400007088FC08300000AA
:10029600001820FF211E0000F008F000E018000002
:1002A60000211C031E211E0000F0088870000000BB
:1002B6001E2123241927211010160E00000000000D
:1002C6000000000000000000000000E0180402002A
:1002D600000000071820400000020418E00000009B
:1002E6000040201807000000404080F08040400099
:1002F6000202010F01020200000000F000000000EF
:100306000101011F010101000000000000000000C2
:1003160080B0700000000000000000000000000037
:1003260000010101010101010000000000000000C0
:10033600003030000000000000000000806018045B
:10034600006018060100000000E010080810E00038
:10035600000F102020100F00001010F80000000001
:100366000020203F20200000007008080888700048
:1003760000302824222130000030088888483000C8
:100386000018202020110E000000C02010F80000E8
:1003960000070424243F240000F808888808080081
:1003A6000019212020110E0000E010888818000096
:1003B600000F112020110E0000380808C838080068
:1003C6000000003F000000000070880808887000E8
:1003D600001C222121221C0000E010080810E00069
:1003E6000000312222110F00000000C0C0000000F2
:1003F6000000003030000000000000800000000017
:10040600000080600000000000008040201008000E
:1004160000010204081020004040404040404000D7
:1004260004040404040404000008102040800000B2
:100436000020100804020100007048080808F000B7
:100446000000003036010000C030C828E810E00087
:100456000718272423140B000000C038E000000012
:10046600203C23020227382008F88888887000007C
:10047600203F202020110E00C03008080808380050
:10048600071820202010080008F808080810E000C7
:10049600203F202020100F0008F88888E808100068
:1004A600203F20202320180008F88888E80810003C
:1004B600203F200003000000C03008080838000074
:1004C60007182020221E020008F808000008F80875
:1004D600203F210101213F20000808F808080000FC
:1004E6000020203F2020000000000808F80808002F
:1004F600C08080807F00000008F888C028180800A7
:10050600203F20012638200008F8080000000000DF
:10051600203F20202020300008F8F800F8F80800D6
:10052600203F003F003F200008F830C00008F808D0
:10053600203F200007183F00E01008080810E000E0
:100546000F10202020100F0008F808080808F000F7
:10055600203F210101010000E01008080810E0001A
:100566000F18242438504F0008F8888888887000AF
:10057600203F2000030C302000708808080838004F
:100586000038202121221C00180808F80808180045
:100596000000203F2000000008F808000008F808C6
:1005A600001F202020201F000878880000C8380877
:1005B600000007380E010000F80800F80008F800EF
:1005C600033C0700073C0300081868808068180889
:1005D60020302C03032C30200838C800C838080007
:1005E6000000203F2000000010080808C838080056
:1005F6002038262120201800000000FE02020200FA
:100606000000007F40404000000C30C000000000A9
:10061600000000010638C00000020202FE000000D1
:10062600004040407F000000000004020202040077
:1006360000000000000000000000000000000000B4
:10064600808080808080808000020204000000009C
:100656000000000000000000000080808080000094
:100666000019242222223F2008F800808000000082
:10067600003F112020110E00000000808080000045
:10068600000E112020201100000000808088F80054
:10069600000E112020103F20000080808080000086
:1006A600001F222222221300008080F088888818EA
:1006B6000020203F202000000000808080808000F5
:1006C600006B94949493600008F80080808000008A
:1006D600203F210000203F20008098980000000065
:1006E6000020203F20200000000000809898000095
:1006F60000C08080807F000008F8000080808000B5
:10070600203F24022D302000000808F800000000D9
:100716000020203F20200000808080808080800094
:10072600203F20003F20003F808000808080000026
:10073600203F210000203F200000808080800000B4
:10074600001F202020201F008080008080000000E5
:1007560080FFA12020110E00000000808080800014
:10076600000E112020A0FF80808080008080800005
:1007760020203F2120000100000080808080800032
:100786000033242424241900008080E080800000A7
:100796000000001F202000008080000000808000F4
:1007A600001F202020103F20808080000080808055
:1007B60000010E30080601008080008000808080E5
:1007C6000F300C030C300F0000808000808080000A
:1007D6000020312E0E312000808080000080808035
:1007E60080818E70180601000080808080808000E5
:1007F6000021302C2221300000000000807C020203
:1008060000000000003F404000000000FF00000024
:1008160000000000FF0000000002027C80000000D3
:100826000040403F000000000006010102020404EF
:100836000000000000000000000000E0000000FFD3
:1008460000000020408000000000000000000000C2
:100856000000000000000000080403000040807F44
:100866000000000000010E00000000000000000073
:10087600000000000000000008080838C808090E3B
:100886000808C8380808080000000000000000003A
:1008960000000000000000008080404020110A0493
:1008A6000A11204040808000000000000000000087
:1008B60000000000000000000000FE02129292926A
:1008C6009292921202FE000000000000000000005A
:1008D60000000000000000000000FF00001F0808E4
:1008E60008081F40807F0000000000000000000094
:1008F6000000000000000000403011969090919694
:100906009090981413503000000000000000000082
:100916000000000000000000040404040444847E77
:1009260006050404040404000000000000000000A2
:100936000000000000000000807000FF201004048A
:100946000404FC040404040000000000000000008D
:10095600000000000000000080601807083000005A
:1009660040807F0000000000000000000000000042
:100976000000000000000000000000000000000071
:100986000000000000000000000000000000000061
:1009960000000000000000000000363600000000E5
:1009A6000000000000000000000000000000000041
:1009B600000000000000000080828282FE828282A7
:1009C6008282FE8282828000000000000000000019
:1009D6000000000000000000008040300F00000012
:1009E6000000FF0000000000000000000000000002
:1009F600000000000000000000001011161010F0AA
:100A06001010141310000000000000000000000089
:100A160000000000000000008181414121110D030A
:100A26000D112141418181000000000000000000FD
:100A360000000000000000000000000000000000B0
:100A460000000000000000000000000000000000A0
:080A5600000000000000000098
:1018A000EF4E60157D087C07ED1DAA0470011C4AEF
:0918B00070F6EF1F70EA1E80E7DC
:0118B900220C
:09197A00D291D292C292C29122D4
:07198A00D291C292D2922219
:0B1940001217EB12194BAF041217EB4B
:05194B00D291C29122BF
:0717E400AC0712197A7F78AF
:1017EB00C291E4FEEEC3940874809480501BAD0745
:1017FB00530580ED64807004D2928002C292EF2573
:09180B00E0FFD291C2910E80DBD6
:0118140022B1
:0E1950001217E412194BE4FF12194002198A13
:0E195E001217E412194B7F4012194002198A29
:10181500EF24B0FFEE33FEE4FDFC1218317F02E445
:0C182500FDFCFE1218317F10E4FDFCFEFB
:10183100AB07AA06ED4C600302195EAF0312195003
:011841002284
:021718008F51EF
:10171A00E4F9E9FF7E00C394087480948050231290
:10172A001815E4F552C3E552948074809480500FE2
:10173A00AF517E007D017C00121831055280E60906
:02174A0080D04D
:01174C00227A
:10186700D3EF9400EE940040147D657C18ED1D7055
:0D187700011CED4C70F7EF1F70E61E80E3C2
:011884002241
:1018BA00EF1FAA0670011E4A600FE4FDEDC3947B78
:0918CA007480948050EA0D80F353
:0118D30022F2
:10178000A907ED24B0FFE433FEE4FDFC121831E9B3
:10179000240254F0C4540F7E004410FFE4FDFC12F8
:1017A0001831E92402FF7E00EF540FFFE4FDFC0234
:0217B0001831EE
:101903007F8D12182DE4FDFC7F14FE121831E4FDC7
:07191300FC7FAFFE0218315A
:0E196C007F8D121824E4FDFC7FAEFE021831C0
:1017B200E4F9E9FF7E00C3940874809480502212F9
:1017C2001815E4F549C3E549948074809480500E5D
:1017D2007D017C00E4FFFE121831054980E7098093
:0117E200D135
:0117E30022E3
:10174D00E4F9E9FF7E00C39408748094805023125D
:10175D001815E4F553C3E553948074809480500FAD
:10176D007D017C007F017E00121831055380E60952
:02177D0080D01A
:01177F002247
:0411DA008F498D4A62
:1011DE00E4F54DF9EB24E0F54DD3EF947F74809454
:1011EE00804007E4F549054A054AE54C6410707ADB
:1011FE00AD4AAF49121780E4F9E9C394087480949C
:10120E0080502975F010E54DA429F582E435F0F5EE
:10121E0083E582244EF582E5833402F583E493FF61
:10122E007E007D017C001218310980CDE54A04FD57
:10123E00AF49121780E4F9E9C39408748094805082
:10124E006575F010E54DA429F582E435F0F583E5DA
:10125E00822456F582E5833402F583E493FF7E0003
:10126E007D017C001218310980CDAD4AAF491217AD
:10127E0080E4F9E9C3940674809480502975F006D1
:10128E00E54DA42426F582E5F03400F583E58229A8
:10129E00F582E43583F583E493FF7E007D017C00C7
:0612AE001218310980CD89
:0112B4002217
:0418D4008F54A9057F
:1018D8007F017E00AD0119ED6009AD547C00121343
:0318E800AA80F1E2
:0118EB0022DA
:0815A3008F398D3A8A3B8B3C25
:1015AB00E4F541F53FE53FC3953D5065C3E53D95FA
:1015BB003F14FD7F0A1218D4AC3BAD3CCFCDCFCE40
:1015CB00CCCE1213BC7C007D0A1213BC8D40E541BE
:1015DB007023E53D14FFE53FC39F5019E5407012A2
:1015EB00E53EC313853FF0A42539FF853E4C7B2098
:1015FB008016754101E53EC313853FF0A42539FFE5
:10160B00E5402430FB853E4CAD3A1211DA053F80A4
:01161B00943A
:01161C0022AB
:0A16D4008F428D438B448A458946FE
:1016DE00E4F548AB44AA45A94685488275830012B5
:1016EE00137DFB602485474CAD43AF421211DA7473
:1016FE00082542F542D39478748094804007E4F52F
:09170E004205430543054880CA69
:0117170022AF
:06149D008F498D4A8B4BC4
:1014A300E4F54C121780E4F9E9C394107480948036
:1014B300502B75F040E54BA4243EF582E5F034084B
:1014C300F583E58229F582E43583F583E493FF7E92
:1014D300007D017C00121831054C0980CBE54A04DC
:1014E300FDAF49121780E4F9E9C394107480948026
:1014F300502B75F040E54BA4245EF582E5F03408EB
:10150300F583E58229F582E43583F583E493FF7E51
:0D151300007D017C00121831054C0980CBD1
:0115200022A8
:04161D008F2E8B3051
:10162100E4F535F536E5315407700BE53113131345
:10163100541FF538800AE531131313541F04F5388C
:101641008D38E538C39531503BAD38AF2E12178038
:10165100852E37E537C395305026AB32AA33A934EE
:101661000536E536AE357002053514F5828E8312E6
:10167100137DFF7E007D017C00121831053780D378
:04168100053880BEEA
:011685002242
:1010F300E4FDFC7FAEFE121831E4FDFCFF1218275D
:10110300E4FDFC7F40FE121831E4FDFC7FB0FE12CB
:101113001831E4FDFC7F81FE121831E4FDFC7FFFF2
:10112300FE121831E4FDFC7FA1FE121831E4FDFC30
:101133007FA6FE121831E4FDFC7FA8FE121831E4ED
:10114300FDFC7F3FFE121831E4FDFC7FC8FE121840
:1011530031E4FDFC7FD3FE121831E4FDFCFFFE12E7
:101163001831E4FDFC7FD5FE121831E4FDFC7F80CD
:10117300FE121831E4FDFC7FD8FE121831E4FDFCA9
:101183007F05FE121831E4FDFC7FD9FE121831E40D
:10119300FDFC7FF1FE121831E4FDFC7FDAFE12182C
:1011A30031E4FDFC7F12FE121831E4FDFC7FDBFE0F
:1011B300121831E4FDFC7F30FE121831E4FDFC7F90
:1011C3008DFE121831E4FDFC7F14FE121831E4FD8C
:0711D300FC7FAFFE021831A2
:03000000021411D6
:0C141100787FE4F6D8FD75815402145871
:10136400BB010689828A83E0225002E722BBFE0287
:09137400E32289828A83E49322BA
:10137D00BB010CE58229F582E5833AF583E0225025
:10138D0006E92582F8E622BBFE06E92582F8E2226F
:0D139D00E58229F582E5833AF583E4932289
:1013AA00EF8DF0A4A8F0CF8CF0A428CE8DF0A42E57
:0213BA00FE2211
:1013BC00BC000BBE0029EF8DF084FFADF022E4CC15
:1013CC00F875F008EF2FFFEE33FEEC33FCEE9DECDE
:1013DC00984005FCEE9DFE0FD5F0E9E4CEFD22ED24
:1013EC00F8F5F0EE8420D21CFEADF075F008EF2F6E
:1013FC00FFED33FD4007985006D5F0F222C398FD5F
:05140C000FD5F0EA22FB
:10141D00021521E493A3F8E493A34003F68001F2AF
:10142D0008DFF48029E493A3F85407240CC8C333D0
:10143D00C4540F4420C8834004F456800146F6DF9F
:10144D00E4800B010204081020408090191AE47EFC
:10145D00019360BCA3FF543F30E509541FFEE49394
:10146D00A360010ECF54C025E060A840B8E493A35B
:10147D00FAE493A3F8E493A3C8C582C8CAC583CA86
:10148D00F0A3C8C582C8CAC583CADFE9DEE780BE3E
:01192C0000BA
:00000001FF
